{
  "_format": "hh-sol-artifact-1",
  "contractName": "CryptoRater",
  "sourceName": "contracts/CryptoRater.sol",
  "abi": [
    {
      "inputs": [],
      "stateMutability": "payable",
      "type": "constructor"
    },
    {
      "anonymous": false,
      "inputs": [
        {
          "indexed": true,
          "internalType": "address",
          "name": "from",
          "type": "address"
        },
        {
          "indexed": false,
          "internalType": "uint256",
          "name": "timestamp",
          "type": "uint256"
        },
        {
          "indexed": false,
          "internalType": "string",
          "name": "message",
          "type": "string"
        }
      ],
      "name": "NewRating",
      "type": "event"
    },
    {
      "inputs": [],
      "name": "getAllRatings",
      "outputs": [
        {
          "components": [
            {
              "internalType": "address",
              "name": "rater",
              "type": "address"
            },
            {
              "internalType": "string",
              "name": "message",
              "type": "string"
            },
            {
              "internalType": "uint256",
              "name": "timestamp",
              "type": "uint256"
            }
          ],
          "internalType": "struct CryptoRater.Rate[]",
          "name": "",
          "type": "tuple[]"
        }
      ],
      "stateMutability": "view",
      "type": "function"
    },
    {
      "inputs": [],
      "name": "getMinus",
      "outputs": [
        {
          "internalType": "uint256",
          "name": "",
          "type": "uint256"
        }
      ],
      "stateMutability": "view",
      "type": "function"
    },
    {
      "inputs": [],
      "name": "getPlus",
      "outputs": [
        {
          "internalType": "uint256",
          "name": "",
          "type": "uint256"
        }
      ],
      "stateMutability": "view",
      "type": "function"
    },
    {
      "inputs": [
        {
          "internalType": "address",
          "name": "",
          "type": "address"
        }
      ],
      "name": "lastRateAt",
      "outputs": [
        {
          "internalType": "uint256",
          "name": "",
          "type": "uint256"
        }
      ],
      "stateMutability": "view",
      "type": "function"
    },
    {
      "inputs": [
        {
          "internalType": "string",
          "name": "_message",
          "type": "string"
        }
      ],
      "name": "minus",
      "outputs": [],
      "stateMutability": "nonpayable",
      "type": "function"
    },
    {
      "inputs": [
        {
          "internalType": "string",
          "name": "_message",
          "type": "string"
        }
      ],
      "name": "plus",
      "outputs": [],
      "stateMutability": "nonpayable",
      "type": "function"
    }
  ],
  "bytecode": "0x6080604052620000336040518060600160405280602181526020016200180d602191396200003960201b62000b221760201c565b620001cd565b620000d98160405160240162000050919062000146565b6040516020818303038152906040527f41304fac000000000000000000000000000000000000000000000000000000007bffffffffffffffffffffffffffffffffffffffffffffffffffffffff19166020820180517bffffffffffffffffffffffffffffffffffffffffffffffffffffffff8381831617835250505050620000dc60201b60201c565b50565b60008151905060006a636f6e736f6c652e6c6f679050602083016000808483855afa5050505050565b600062000112826200016a565b6200011e818562000175565b93506200013081856020860162000186565b6200013b81620001bc565b840191505092915050565b6000602082019050818103600083015262000162818462000105565b905092915050565b600081519050919050565b600082825260208201905092915050565b60005b83811015620001a657808201518184015260208101905062000189565b83811115620001b6576000848401525b50505050565b6000601f19601f8301169050919050565b61163080620001dd6000396000f3fe608060405234801561001057600080fd5b50600436106100625760003560e01c806326aba0bf146100675780635d99b84e1461008357806374f455e01461009f5780639dbe552e146100cf578063bd7f1cba146100ed578063eac977c41461010b575b600080fd5b610081600480360381019061007c9190610e65565b610129565b005b61009d60048036038101906100989190610e65565b610526565b005b6100b960048036038101906100b49190610e3c565b610923565b6040516100c691906111d2565b60405180910390f35b6100d761093b565b6040516100e491906111d2565b60405180910390f35b6100f5610986565b60405161010291906111d2565b60405180910390f35b6101136109d1565b60405161012091906110ce565b60405180910390f35b42600f600460003373ffffffffffffffffffffffffffffffffffffffff1673ffffffffffffffffffffffffffffffffffffffff1681526020019081526020016000205461017691906112e4565b106101b6576040517f08c379a00000000000000000000000000000000000000000000000000000000081526004016101ad906111b2565b60405180910390fd5b42600460003373ffffffffffffffffffffffffffffffffffffffff1673ffffffffffffffffffffffffffffffffffffffff16815260200190815260200160002081905550600160008082825461020c91906112e4565b925050819055506102526040518060400160405280601481526020017f257320726174656420706f7369746976656c792100000000000000000000000081525033610bbb565b600360405180606001604052803373ffffffffffffffffffffffffffffffffffffffff16815260200183815260200142815250908060018154018082558091505060019003906000526020600020906003020160009091909190915060008201518160000160006101000a81548173ffffffffffffffffffffffffffffffffffffffff021916908373ffffffffffffffffffffffffffffffffffffffff1602179055506020820151816001019080519060200190610311929190610d1c565b5060408201518160020155505060006064600254424461033191906112e4565b61033b91906112e4565b610345919061141b565b90506103866040518060400160405280601681526020017f52616e646f6d20232067656e6572617465643a2025730000000000000000000081525082610c57565b80600281905550600a8110156104d2576103d56040518060400160405280600781526020017f257320776f6e210000000000000000000000000000000000000000000000000081525033610bbb565b6000655af3107a4000905047811115610423576040517f08c379a000000000000000000000000000000000000000000000000000000000815260040161041a90611172565b60405180910390fd5b60003373ffffffffffffffffffffffffffffffffffffffff1682604051610449906110b9565b60006040518083038185875af1925050503d8060008114610486576040519150601f19603f3d011682016040523d82523d6000602084013e61048b565b606091505b50509050806104cf576040517f08c379a00000000000000000000000000000000000000000000000000000000081526004016104c690611192565b60405180910390fd5b50505b3373ffffffffffffffffffffffffffffffffffffffff167f3f69c665abf1ae9e6aa630a5a6e5e9ccd18758fdcd7c9dbee304a314a88d0b77428460405161051a9291906111ed565b60405180910390a25050565b42600f600460003373ffffffffffffffffffffffffffffffffffffffff1673ffffffffffffffffffffffffffffffffffffffff1681526020019081526020016000205461057391906112e4565b106105b3576040517f08c379a00000000000000000000000000000000000000000000000000000000081526004016105aa906111b2565b60405180910390fd5b42600460003373ffffffffffffffffffffffffffffffffffffffff1673ffffffffffffffffffffffffffffffffffffffff16815260200190815260200160002081905550600180600082825461060991906112e4565b9250508190555061064f6040518060400160405280601481526020017f2573207261746564206e656761746976656c792100000000000000000000000081525033610bbb565b600360405180606001604052803373ffffffffffffffffffffffffffffffffffffffff16815260200183815260200142815250908060018154018082558091505060019003906000526020600020906003020160009091909190915060008201518160000160006101000a81548173ffffffffffffffffffffffffffffffffffffffff021916908373ffffffffffffffffffffffffffffffffffffffff160217905550602082015181600101908051906020019061070e929190610d1c565b5060408201518160020155505060006064600254424461072e91906112e4565b61073891906112e4565b610742919061141b565b90506107836040518060400160405280601681526020017f52616e646f6d20232067656e6572617465643a2025730000000000000000000081525082610c57565b80600281905550600a8110156108cf576107d26040518060400160405280600781526020017f257320776f6e210000000000000000000000000000000000000000000000000081525033610bbb565b6000655af3107a4000905047811115610820576040517f08c379a000000000000000000000000000000000000000000000000000000000815260040161081790611172565b60405180910390fd5b60003373ffffffffffffffffffffffffffffffffffffffff1682604051610846906110b9565b60006040518083038185875af1925050503d8060008114610883576040519150601f19603f3d011682016040523d82523d6000602084013e610888565b606091505b50509050806108cc576040517f08c379a00000000000000000000000000000000000000000000000000000000081526004016108c390611192565b60405180910390fd5b50505b3373ffffffffffffffffffffffffffffffffffffffff167f3f69c665abf1ae9e6aa630a5a6e5e9ccd18758fdcd7c9dbee304a314a88d0b7742846040516109179291906111ed565b60405180910390a25050565b60046020528060005260406000206000915090505481565b600061097e6040518060400160405280601881526020017f506f73697469766520726174696e67206f66202564203a290000000000000000815250600054610c57565b600054905090565b60006109c96040518060400160405280601881526020017f4e6567617469766520726174696e67206f66202564203a280000000000000000815250600054610c57565b600154905090565b60606003805480602002602001604051908101604052809291908181526020016000905b82821015610b1957838290600052602060002090600302016040518060600160405290816000820160009054906101000a900473ffffffffffffffffffffffffffffffffffffffff1673ffffffffffffffffffffffffffffffffffffffff1673ffffffffffffffffffffffffffffffffffffffff168152602001600182018054610a7e906113b8565b80601f0160208091040260200160405190810160405280929190818152602001828054610aaa906113b8565b8015610af75780601f10610acc57610100808354040283529160200191610af7565b820191906000526020600020905b815481529060010190602001808311610ada57829003601f168201915b50505050508152602001600282015481525050815260200190600101906109f5565b50505050905090565b610bb881604051602401610b3691906110f0565b6040516020818303038152906040527f41304fac000000000000000000000000000000000000000000000000000000007bffffffffffffffffffffffffffffffffffffffffffffffffffffffff19166020820180517bffffffffffffffffffffffffffffffffffffffffffffffffffffffff8381831617835250505050610cf3565b50565b610c538282604051602401610bd1929190611112565b6040516020818303038152906040527f319af333000000000000000000000000000000000000000000000000000000007bffffffffffffffffffffffffffffffffffffffffffffffffffffffff19166020820180517bffffffffffffffffffffffffffffffffffffffffffffffffffffffff8381831617835250505050610cf3565b5050565b610cef8282604051602401610c6d929190611142565b6040516020818303038152906040527f9710a9d0000000000000000000000000000000000000000000000000000000007bffffffffffffffffffffffffffffffffffffffffffffffffffffffff19166020820180517bffffffffffffffffffffffffffffffffffffffffffffffffffffffff8381831617835250505050610cf3565b5050565b60008151905060006a636f6e736f6c652e6c6f679050602083016000808483855afa5050505050565b828054610d28906113b8565b90600052602060002090601f016020900481019282610d4a5760008555610d91565b82601f10610d6357805160ff1916838001178555610d91565b82800160010185558215610d91579182015b82811115610d90578251825591602001919060010190610d75565b5b509050610d9e9190610da2565b5090565b5b80821115610dbb576000816000905550600101610da3565b5090565b6000610dd2610dcd84611242565b61121d565b905082815260208101848484011115610dea57600080fd5b610df5848285611376565b509392505050565b600081359050610e0c816115e3565b92915050565b600082601f830112610e2357600080fd5b8135610e33848260208601610dbf565b91505092915050565b600060208284031215610e4e57600080fd5b6000610e5c84828501610dfd565b91505092915050565b600060208284031215610e7757600080fd5b600082013567ffffffffffffffff811115610e9157600080fd5b610e9d84828501610e12565b91505092915050565b6000610eb2838361104b565b905092915050565b610ec38161133a565b82525050565b610ed28161133a565b82525050565b6000610ee382611283565b610eed81856112a6565b935083602082028501610eff85611273565b8060005b85811015610f3b5784840389528151610f1c8582610ea6565b9450610f2783611299565b925060208a01995050600181019050610f03565b50829750879550505050505092915050565b6000610f588261128e565b610f6281856112c2565b9350610f72818560208601611385565b610f7b81611508565b840191505092915050565b6000610f918261128e565b610f9b81856112d3565b9350610fab818560208601611385565b610fb481611508565b840191505092915050565b6000610fcc6031836112d3565b9150610fd782611519565b604082019050919050565b6000610fef6000836112b7565b9150610ffa82611568565b600082019050919050565b60006110126028836112d3565b915061101d8261156b565b604082019050919050565b6000611035600b836112d3565b9150611040826115ba565b602082019050919050565b60006060830160008301516110636000860182610eba565b506020830151848203602086015261107b8282610f4d565b9150506040830151611090604086018261109b565b508091505092915050565b6110a48161136c565b82525050565b6110b38161136c565b82525050565b60006110c482610fe2565b9150819050919050565b600060208201905081810360008301526110e88184610ed8565b905092915050565b6000602082019050818103600083015261110a8184610f86565b905092915050565b6000604082019050818103600083015261112c8185610f86565b905061113b6020830184610ec9565b9392505050565b6000604082019050818103600083015261115c8185610f86565b905061116b60208301846110aa565b9392505050565b6000602082019050818103600083015261118b81610fbf565b9050919050565b600060208201905081810360008301526111ab81611005565b9050919050565b600060208201905081810360008301526111cb81611028565b9050919050565b60006020820190506111e760008301846110aa565b92915050565b600060408201905061120260008301856110aa565b81810360208301526112148184610f86565b90509392505050565b6000611227611238565b905061123382826113ea565b919050565b6000604051905090565b600067ffffffffffffffff82111561125d5761125c6114d9565b5b61126682611508565b9050602081019050919050565b6000819050602082019050919050565b600081519050919050565b600081519050919050565b6000602082019050919050565b600082825260208201905092915050565b600081905092915050565b600082825260208201905092915050565b600082825260208201905092915050565b60006112ef8261136c565b91506112fa8361136c565b9250827fffffffffffffffffffffffffffffffffffffffffffffffffffffffffffffffff0382111561132f5761132e61144c565b5b828201905092915050565b60006113458261134c565b9050919050565b600073ffffffffffffffffffffffffffffffffffffffff82169050919050565b6000819050919050565b82818337600083830152505050565b60005b838110156113a3578082015181840152602081019050611388565b838111156113b2576000848401525b50505050565b600060028204905060018216806113d057607f821691505b602082108114156113e4576113e36114aa565b5b50919050565b6113f382611508565b810181811067ffffffffffffffff82111715611412576114116114d9565b5b80604052505050565b60006114268261136c565b91506114318361136c565b9250826114415761144061147b565b5b828206905092915050565b7f4e487b7100000000000000000000000000000000000000000000000000000000600052601160045260246000fd5b7f4e487b7100000000000000000000000000000000000000000000000000000000600052601260045260246000fd5b7f4e487b7100000000000000000000000000000000000000000000000000000000600052602260045260246000fd5b7f4e487b7100000000000000000000000000000000000000000000000000000000600052604160045260246000fd5b6000601f19601f8301169050919050565b7f47616d612d4368616e27732062616c616e6365206973206c657373207468616e60008201527f20746865207072697a6520616d6f756e74000000000000000000000000000000602082015250565b50565b7f6661696c656420746f207769746864726177206d6f6e65792066726f6d20476160008201527f6d612d4368616e2e000000000000000000000000000000000000000000000000602082015250565b7f57616974203135206d696e000000000000000000000000000000000000000000600082015250565b6115ec8161133a565b81146115f757600080fd5b5056fea2646970667358221220be097fe493688f36da1bd71292cf38b6e1de972eb01552321b898c03c1d6189564736f6c6343000804003353756d6d6f6e696e67206a75737473752120536d61727420636f6e747261637421",
  "linkReferences": {},
  "deployedLinkReferences": {}
}