{
  "_format": "hh-sol-artifact-1",
  "contractName": "CryptoRater",
  "sourceName": "contracts/CryptoRater.sol",
  "abi": [
    {
      "inputs": [],
      "stateMutability": "nonpayable",
      "type": "constructor"
    },
    {
      "anonymous": false,
      "inputs": [
        {
          "indexed": true,
          "internalType": "address",
          "name": "from",
          "type": "address"
        },
        {
          "indexed": false,
          "internalType": "uint256",
          "name": "timestamp",
          "type": "uint256"
        },
        {
          "indexed": false,
          "internalType": "string",
          "name": "message",
          "type": "string"
        }
      ],
      "name": "NewRating",
      "type": "event"
    },
    {
      "inputs": [],
      "name": "getAllRatings",
      "outputs": [
        {
          "components": [
            {
              "internalType": "address",
              "name": "rater",
              "type": "address"
            },
            {
              "internalType": "string",
              "name": "message",
              "type": "string"
            },
            {
              "internalType": "uint256",
              "name": "timestamp",
              "type": "uint256"
            }
          ],
          "internalType": "struct CryptoRater.Rate[]",
          "name": "",
          "type": "tuple[]"
        }
      ],
      "stateMutability": "view",
      "type": "function"
    },
    {
      "inputs": [],
      "name": "getMinus",
      "outputs": [
        {
          "internalType": "uint256",
          "name": "",
          "type": "uint256"
        }
      ],
      "stateMutability": "view",
      "type": "function"
    },
    {
      "inputs": [],
      "name": "getPlus",
      "outputs": [
        {
          "internalType": "uint256",
          "name": "",
          "type": "uint256"
        }
      ],
      "stateMutability": "view",
      "type": "function"
    },
    {
      "inputs": [
        {
          "internalType": "string",
          "name": "_message",
          "type": "string"
        }
      ],
      "name": "minus",
      "outputs": [],
      "stateMutability": "nonpayable",
      "type": "function"
    },
    {
      "inputs": [
        {
          "internalType": "string",
          "name": "_message",
          "type": "string"
        }
      ],
      "name": "plus",
      "outputs": [],
      "stateMutability": "nonpayable",
      "type": "function"
    }
  ],
  "bytecode": "0x60806040523480156200001157600080fd5b506200004160405180606001604052806021815260200162001031602191396200004760201b620005c31760201c565b620001db565b620000e7816040516024016200005e919062000154565b6040516020818303038152906040527f41304fac000000000000000000000000000000000000000000000000000000007bffffffffffffffffffffffffffffffffffffffffffffffffffffffff19166020820180517bffffffffffffffffffffffffffffffffffffffffffffffffffffffff8381831617835250505050620000ea60201b60201c565b50565b60008151905060006a636f6e736f6c652e6c6f679050602083016000808483855afa5050505050565b6000620001208262000178565b6200012c818562000183565b93506200013e81856020860162000194565b6200014981620001ca565b840191505092915050565b6000602082019050818103600083015262000170818462000113565b905092915050565b600081519050919050565b600082825260208201905092915050565b60005b83811015620001b457808201518184015260208101905062000197565b83811115620001c4576000848401525b50505050565b6000601f19601f8301169050919050565b610e4680620001eb6000396000f3fe608060405234801561001057600080fd5b50600436106100575760003560e01c806326aba0bf1461005c5780635d99b84e146100785780639dbe552e14610094578063bd7f1cba146100b2578063eac977c4146100d0575b600080fd5b610076600480360381019061007191906108c8565b6100ee565b005b610092600480360381019061008d91906108c8565b610265565b005b61009c6103dc565b6040516100a99190610b34565b60405180910390f35b6100ba610427565b6040516100c79190610b34565b60405180910390f35b6100d8610472565b6040516100e59190610a90565b60405180910390f35b60016000808282546101009190610c3b565b925050819055506101466040518060400160405280601481526020017f257320726174656420706f7369746976656c79210000000000000000000000008152503361065c565b600260405180606001604052803373ffffffffffffffffffffffffffffffffffffffff16815260200183815260200142815250908060018154018082558091505060019003906000526020600020906003020160009091909190915060008201518160000160006101000a81548173ffffffffffffffffffffffffffffffffffffffff021916908373ffffffffffffffffffffffffffffffffffffffff16021790555060208201518160010190805190602001906102059291906107bd565b506040820151816002015550503373ffffffffffffffffffffffffffffffffffffffff167f3f69c665abf1ae9e6aa630a5a6e5e9ccd18758fdcd7c9dbee304a314a88d0b77428360405161025a929190610b4f565b60405180910390a250565b60018060008282546102779190610c3b565b925050819055506102bd6040518060400160405280601481526020017f2573207261746564206e656761746976656c79210000000000000000000000008152503361065c565b600260405180606001604052803373ffffffffffffffffffffffffffffffffffffffff16815260200183815260200142815250908060018154018082558091505060019003906000526020600020906003020160009091909190915060008201518160000160006101000a81548173ffffffffffffffffffffffffffffffffffffffff021916908373ffffffffffffffffffffffffffffffffffffffff160217905550602082015181600101908051906020019061037c9291906107bd565b506040820151816002015550503373ffffffffffffffffffffffffffffffffffffffff167f3f69c665abf1ae9e6aa630a5a6e5e9ccd18758fdcd7c9dbee304a314a88d0b7742836040516103d1929190610b4f565b60405180910390a250565b600061041f6040518060400160405280601881526020017f506f73697469766520726174696e67206f66202564203a2900000000000000008152506000546106f8565b600054905090565b600061046a6040518060400160405280601881526020017f4e6567617469766520726174696e67206f66202564203a2800000000000000008152506000546106f8565b600154905090565b60606002805480602002602001604051908101604052809291908181526020016000905b828210156105ba57838290600052602060002090600302016040518060600160405290816000820160009054906101000a900473ffffffffffffffffffffffffffffffffffffffff1673ffffffffffffffffffffffffffffffffffffffff1673ffffffffffffffffffffffffffffffffffffffff16815260200160018201805461051f90610d0f565b80601f016020809104026020016040519081016040528092919081815260200182805461054b90610d0f565b80156105985780601f1061056d57610100808354040283529160200191610598565b820191906000526020600020905b81548152906001019060200180831161057b57829003601f168201915b5050505050815260200160028201548152505081526020019060010190610496565b50505050905090565b610659816040516024016105d79190610ab2565b6040516020818303038152906040527f41304fac000000000000000000000000000000000000000000000000000000007bffffffffffffffffffffffffffffffffffffffffffffffffffffffff19166020820180517bffffffffffffffffffffffffffffffffffffffffffffffffffffffff8381831617835250505050610794565b50565b6106f48282604051602401610672929190610ad4565b6040516020818303038152906040527f319af333000000000000000000000000000000000000000000000000000000007bffffffffffffffffffffffffffffffffffffffffffffffffffffffff19166020820180517bffffffffffffffffffffffffffffffffffffffffffffffffffffffff8381831617835250505050610794565b5050565b610790828260405160240161070e929190610b04565b6040516020818303038152906040527f9710a9d0000000000000000000000000000000000000000000000000000000007bffffffffffffffffffffffffffffffffffffffffffffffffffffffff19166020820180517bffffffffffffffffffffffffffffffffffffffffffffffffffffffff8381831617835250505050610794565b5050565b60008151905060006a636f6e736f6c652e6c6f679050602083016000808483855afa5050505050565b8280546107c990610d0f565b90600052602060002090601f0160209004810192826107eb5760008555610832565b82601f1061080457805160ff1916838001178555610832565b82800160010185558215610832579182015b82811115610831578251825591602001919060010190610816565b5b50905061083f9190610843565b5090565b5b8082111561085c576000816000905550600101610844565b5090565b600061087361086e84610ba4565b610b7f565b90508281526020810184848401111561088b57600080fd5b610896848285610ccd565b509392505050565b600082601f8301126108af57600080fd5b81356108bf848260208601610860565b91505092915050565b6000602082840312156108da57600080fd5b600082013567ffffffffffffffff8111156108f457600080fd5b6109008482850161089e565b91505092915050565b60006109158383610a22565b905092915050565b61092681610c91565b82525050565b61093581610c91565b82525050565b600061094682610be5565b6109508185610c08565b93508360208202850161096285610bd5565b8060005b8581101561099e578484038952815161097f8582610909565b945061098a83610bfb565b925060208a01995050600181019050610966565b50829750879550505050505092915050565b60006109bb82610bf0565b6109c58185610c19565b93506109d5818560208601610cdc565b6109de81610dff565b840191505092915050565b60006109f482610bf0565b6109fe8185610c2a565b9350610a0e818560208601610cdc565b610a1781610dff565b840191505092915050565b6000606083016000830151610a3a600086018261091d565b5060208301518482036020860152610a5282826109b0565b9150506040830151610a676040860182610a72565b508091505092915050565b610a7b81610cc3565b82525050565b610a8a81610cc3565b82525050565b60006020820190508181036000830152610aaa818461093b565b905092915050565b60006020820190508181036000830152610acc81846109e9565b905092915050565b60006040820190508181036000830152610aee81856109e9565b9050610afd602083018461092c565b9392505050565b60006040820190508181036000830152610b1e81856109e9565b9050610b2d6020830184610a81565b9392505050565b6000602082019050610b496000830184610a81565b92915050565b6000604082019050610b646000830185610a81565b8181036020830152610b7681846109e9565b90509392505050565b6000610b89610b9a565b9050610b958282610d41565b919050565b6000604051905090565b600067ffffffffffffffff821115610bbf57610bbe610dd0565b5b610bc882610dff565b9050602081019050919050565b6000819050602082019050919050565b600081519050919050565b600081519050919050565b6000602082019050919050565b600082825260208201905092915050565b600082825260208201905092915050565b600082825260208201905092915050565b6000610c4682610cc3565b9150610c5183610cc3565b9250827fffffffffffffffffffffffffffffffffffffffffffffffffffffffffffffffff03821115610c8657610c85610d72565b5b828201905092915050565b6000610c9c82610ca3565b9050919050565b600073ffffffffffffffffffffffffffffffffffffffff82169050919050565b6000819050919050565b82818337600083830152505050565b60005b83811015610cfa578082015181840152602081019050610cdf565b83811115610d09576000848401525b50505050565b60006002820490506001821680610d2757607f821691505b60208210811415610d3b57610d3a610da1565b5b50919050565b610d4a82610dff565b810181811067ffffffffffffffff82111715610d6957610d68610dd0565b5b80604052505050565b7f4e487b7100000000000000000000000000000000000000000000000000000000600052601160045260246000fd5b7f4e487b7100000000000000000000000000000000000000000000000000000000600052602260045260246000fd5b7f4e487b7100000000000000000000000000000000000000000000000000000000600052604160045260246000fd5b6000601f19601f830116905091905056fea264697066735822122021bc492a3f746b930929336c209918abfcba125db6b3f57805369c8c17d5bf2064736f6c6343000804003353756d6d6f6e696e67206a75737473752120536d61727420636f6e747261637421",
  "linkReferences": {},
  "deployedLinkReferences": {}
}