{
  "_format": "hh-sol-artifact-1",
  "contractName": "CryptoRater",
  "sourceName": "contracts/CryptoRater.sol",
  "abi": [
    {
      "inputs": [],
      "stateMutability": "payable",
      "type": "constructor"
    },
    {
      "anonymous": false,
      "inputs": [
        {
          "indexed": true,
          "internalType": "address",
          "name": "from",
          "type": "address"
        },
        {
          "indexed": false,
          "internalType": "uint256",
          "name": "timestamp",
          "type": "uint256"
        },
        {
          "indexed": false,
          "internalType": "string",
          "name": "message",
          "type": "string"
        }
      ],
      "name": "NewRating",
      "type": "event"
    },
    {
      "inputs": [],
      "name": "getAllRatings",
      "outputs": [
        {
          "components": [
            {
              "internalType": "address",
              "name": "rater",
              "type": "address"
            },
            {
              "internalType": "string",
              "name": "message",
              "type": "string"
            },
            {
              "internalType": "uint256",
              "name": "timestamp",
              "type": "uint256"
            }
          ],
          "internalType": "struct CryptoRater.Rate[]",
          "name": "",
          "type": "tuple[]"
        }
      ],
      "stateMutability": "view",
      "type": "function"
    },
    {
      "inputs": [],
      "name": "getMinus",
      "outputs": [
        {
          "internalType": "uint256",
          "name": "",
          "type": "uint256"
        }
      ],
      "stateMutability": "view",
      "type": "function"
    },
    {
      "inputs": [],
      "name": "getPlus",
      "outputs": [
        {
          "internalType": "uint256",
          "name": "",
          "type": "uint256"
        }
      ],
      "stateMutability": "view",
      "type": "function"
    },
    {
      "inputs": [
        {
          "internalType": "address",
          "name": "",
          "type": "address"
        }
      ],
      "name": "lastRateAt",
      "outputs": [
        {
          "internalType": "uint256",
          "name": "",
          "type": "uint256"
        }
      ],
      "stateMutability": "view",
      "type": "function"
    },
    {
      "inputs": [
        {
          "internalType": "string",
          "name": "_message",
          "type": "string"
        }
      ],
      "name": "minus",
      "outputs": [],
      "stateMutability": "nonpayable",
      "type": "function"
    },
    {
      "inputs": [
        {
          "internalType": "string",
          "name": "_message",
          "type": "string"
        }
      ],
      "name": "plus",
      "outputs": [],
      "stateMutability": "nonpayable",
      "type": "function"
    }
  ],
  "bytecode": "0x6080604052620000336040518060600160405280602181526020016200180f602191396200003960201b62000b241760201c565b620001cd565b620000d98160405160240162000050919062000146565b6040516020818303038152906040527f41304fac000000000000000000000000000000000000000000000000000000007bffffffffffffffffffffffffffffffffffffffffffffffffffffffff19166020820180517bffffffffffffffffffffffffffffffffffffffffffffffffffffffff8381831617835250505050620000dc60201b60201c565b50565b60008151905060006a636f6e736f6c652e6c6f679050602083016000808483855afa5050505050565b600062000112826200016a565b6200011e818562000175565b93506200013081856020860162000186565b6200013b81620001bc565b840191505092915050565b6000602082019050818103600083015262000162818462000105565b905092915050565b600081519050919050565b600082825260208201905092915050565b60005b83811015620001a657808201518184015260208101905062000189565b83811115620001b6576000848401525b50505050565b6000601f19601f8301169050919050565b61163280620001dd6000396000f3fe608060405234801561001057600080fd5b50600436106100625760003560e01c806326aba0bf146100675780635d99b84e1461008357806374f455e01461009f5780639dbe552e146100cf578063bd7f1cba146100ed578063eac977c41461010b575b600080fd5b610081600480360381019061007c9190610e67565b610129565b005b61009d60048036038101906100989190610e67565b610527565b005b6100b960048036038101906100b49190610e3e565b610925565b6040516100c691906111d4565b60405180910390f35b6100d761093d565b6040516100e491906111d4565b60405180910390f35b6100f5610988565b60405161010291906111d4565b60405180910390f35b6101136109d3565b60405161012091906110d0565b60405180910390f35b42610384600460003373ffffffffffffffffffffffffffffffffffffffff1673ffffffffffffffffffffffffffffffffffffffff1681526020019081526020016000205461017791906112e6565b106101b7576040517f08c379a00000000000000000000000000000000000000000000000000000000081526004016101ae906111b4565b60405180910390fd5b42600460003373ffffffffffffffffffffffffffffffffffffffff1673ffffffffffffffffffffffffffffffffffffffff16815260200190815260200160002081905550600160008082825461020d91906112e6565b925050819055506102536040518060400160405280601481526020017f257320726174656420706f7369746976656c792100000000000000000000000081525033610bbd565b600360405180606001604052803373ffffffffffffffffffffffffffffffffffffffff16815260200183815260200142815250908060018154018082558091505060019003906000526020600020906003020160009091909190915060008201518160000160006101000a81548173ffffffffffffffffffffffffffffffffffffffff021916908373ffffffffffffffffffffffffffffffffffffffff1602179055506020820151816001019080519060200190610312929190610d1e565b5060408201518160020155505060006064600254424461033291906112e6565b61033c91906112e6565b610346919061141d565b90506103876040518060400160405280601681526020017f52616e646f6d20232067656e6572617465643a2025730000000000000000000081525082610c59565b8060028190555060328110156104d3576103d66040518060400160405280600781526020017f257320776f6e210000000000000000000000000000000000000000000000000081525033610bbd565b6000655af3107a4000905047811115610424576040517f08c379a000000000000000000000000000000000000000000000000000000000815260040161041b90611174565b60405180910390fd5b60003373ffffffffffffffffffffffffffffffffffffffff168260405161044a906110bb565b60006040518083038185875af1925050503d8060008114610487576040519150601f19603f3d011682016040523d82523d6000602084013e61048c565b606091505b50509050806104d0576040517f08c379a00000000000000000000000000000000000000000000000000000000081526004016104c790611194565b60405180910390fd5b50505b3373ffffffffffffffffffffffffffffffffffffffff167f3f69c665abf1ae9e6aa630a5a6e5e9ccd18758fdcd7c9dbee304a314a88d0b77428460405161051b9291906111ef565b60405180910390a25050565b42610384600460003373ffffffffffffffffffffffffffffffffffffffff1673ffffffffffffffffffffffffffffffffffffffff1681526020019081526020016000205461057591906112e6565b106105b5576040517f08c379a00000000000000000000000000000000000000000000000000000000081526004016105ac906111b4565b60405180910390fd5b42600460003373ffffffffffffffffffffffffffffffffffffffff1673ffffffffffffffffffffffffffffffffffffffff16815260200190815260200160002081905550600180600082825461060b91906112e6565b925050819055506106516040518060400160405280601481526020017f2573207261746564206e656761746976656c792100000000000000000000000081525033610bbd565b600360405180606001604052803373ffffffffffffffffffffffffffffffffffffffff16815260200183815260200142815250908060018154018082558091505060019003906000526020600020906003020160009091909190915060008201518160000160006101000a81548173ffffffffffffffffffffffffffffffffffffffff021916908373ffffffffffffffffffffffffffffffffffffffff1602179055506020820151816001019080519060200190610710929190610d1e565b5060408201518160020155505060006064600254424461073091906112e6565b61073a91906112e6565b610744919061141d565b90506107856040518060400160405280601681526020017f52616e646f6d20232067656e6572617465643a2025730000000000000000000081525082610c59565b8060028190555060328110156108d1576107d46040518060400160405280600781526020017f257320776f6e210000000000000000000000000000000000000000000000000081525033610bbd565b6000655af3107a4000905047811115610822576040517f08c379a000000000000000000000000000000000000000000000000000000000815260040161081990611174565b60405180910390fd5b60003373ffffffffffffffffffffffffffffffffffffffff1682604051610848906110bb565b60006040518083038185875af1925050503d8060008114610885576040519150601f19603f3d011682016040523d82523d6000602084013e61088a565b606091505b50509050806108ce576040517f08c379a00000000000000000000000000000000000000000000000000000000081526004016108c590611194565b60405180910390fd5b50505b3373ffffffffffffffffffffffffffffffffffffffff167f3f69c665abf1ae9e6aa630a5a6e5e9ccd18758fdcd7c9dbee304a314a88d0b7742846040516109199291906111ef565b60405180910390a25050565b60046020528060005260406000206000915090505481565b60006109806040518060400160405280601881526020017f506f73697469766520726174696e67206f66202564203a290000000000000000815250600054610c59565b600054905090565b60006109cb6040518060400160405280601881526020017f4e6567617469766520726174696e67206f66202564203a280000000000000000815250600054610c59565b600154905090565b60606003805480602002602001604051908101604052809291908181526020016000905b82821015610b1b57838290600052602060002090600302016040518060600160405290816000820160009054906101000a900473ffffffffffffffffffffffffffffffffffffffff1673ffffffffffffffffffffffffffffffffffffffff1673ffffffffffffffffffffffffffffffffffffffff168152602001600182018054610a80906113ba565b80601f0160208091040260200160405190810160405280929190818152602001828054610aac906113ba565b8015610af95780601f10610ace57610100808354040283529160200191610af9565b820191906000526020600020905b815481529060010190602001808311610adc57829003601f168201915b50505050508152602001600282015481525050815260200190600101906109f7565b50505050905090565b610bba81604051602401610b3891906110f2565b6040516020818303038152906040527f41304fac000000000000000000000000000000000000000000000000000000007bffffffffffffffffffffffffffffffffffffffffffffffffffffffff19166020820180517bffffffffffffffffffffffffffffffffffffffffffffffffffffffff8381831617835250505050610cf5565b50565b610c558282604051602401610bd3929190611114565b6040516020818303038152906040527f319af333000000000000000000000000000000000000000000000000000000007bffffffffffffffffffffffffffffffffffffffffffffffffffffffff19166020820180517bffffffffffffffffffffffffffffffffffffffffffffffffffffffff8381831617835250505050610cf5565b5050565b610cf18282604051602401610c6f929190611144565b6040516020818303038152906040527f9710a9d0000000000000000000000000000000000000000000000000000000007bffffffffffffffffffffffffffffffffffffffffffffffffffffffff19166020820180517bffffffffffffffffffffffffffffffffffffffffffffffffffffffff8381831617835250505050610cf5565b5050565b60008151905060006a636f6e736f6c652e6c6f679050602083016000808483855afa5050505050565b828054610d2a906113ba565b90600052602060002090601f016020900481019282610d4c5760008555610d93565b82601f10610d6557805160ff1916838001178555610d93565b82800160010185558215610d93579182015b82811115610d92578251825591602001919060010190610d77565b5b509050610da09190610da4565b5090565b5b80821115610dbd576000816000905550600101610da5565b5090565b6000610dd4610dcf84611244565b61121f565b905082815260208101848484011115610dec57600080fd5b610df7848285611378565b509392505050565b600081359050610e0e816115e5565b92915050565b600082601f830112610e2557600080fd5b8135610e35848260208601610dc1565b91505092915050565b600060208284031215610e5057600080fd5b6000610e5e84828501610dff565b91505092915050565b600060208284031215610e7957600080fd5b600082013567ffffffffffffffff811115610e9357600080fd5b610e9f84828501610e14565b91505092915050565b6000610eb4838361104d565b905092915050565b610ec58161133c565b82525050565b610ed48161133c565b82525050565b6000610ee582611285565b610eef81856112a8565b935083602082028501610f0185611275565b8060005b85811015610f3d5784840389528151610f1e8582610ea8565b9450610f298361129b565b925060208a01995050600181019050610f05565b50829750879550505050505092915050565b6000610f5a82611290565b610f6481856112c4565b9350610f74818560208601611387565b610f7d8161150a565b840191505092915050565b6000610f9382611290565b610f9d81856112d5565b9350610fad818560208601611387565b610fb68161150a565b840191505092915050565b6000610fce6031836112d5565b9150610fd98261151b565b604082019050919050565b6000610ff16000836112b9565b9150610ffc8261156a565b600082019050919050565b60006110146028836112d5565b915061101f8261156d565b604082019050919050565b6000611037600b836112d5565b9150611042826115bc565b602082019050919050565b60006060830160008301516110656000860182610ebc565b506020830151848203602086015261107d8282610f4f565b9150506040830151611092604086018261109d565b508091505092915050565b6110a68161136e565b82525050565b6110b58161136e565b82525050565b60006110c682610fe4565b9150819050919050565b600060208201905081810360008301526110ea8184610eda565b905092915050565b6000602082019050818103600083015261110c8184610f88565b905092915050565b6000604082019050818103600083015261112e8185610f88565b905061113d6020830184610ecb565b9392505050565b6000604082019050818103600083015261115e8185610f88565b905061116d60208301846110ac565b9392505050565b6000602082019050818103600083015261118d81610fc1565b9050919050565b600060208201905081810360008301526111ad81611007565b9050919050565b600060208201905081810360008301526111cd8161102a565b9050919050565b60006020820190506111e960008301846110ac565b92915050565b600060408201905061120460008301856110ac565b81810360208301526112168184610f88565b90509392505050565b600061122961123a565b905061123582826113ec565b919050565b6000604051905090565b600067ffffffffffffffff82111561125f5761125e6114db565b5b6112688261150a565b9050602081019050919050565b6000819050602082019050919050565b600081519050919050565b600081519050919050565b6000602082019050919050565b600082825260208201905092915050565b600081905092915050565b600082825260208201905092915050565b600082825260208201905092915050565b60006112f18261136e565b91506112fc8361136e565b9250827fffffffffffffffffffffffffffffffffffffffffffffffffffffffffffffffff038211156113315761133061144e565b5b828201905092915050565b60006113478261134e565b9050919050565b600073ffffffffffffffffffffffffffffffffffffffff82169050919050565b6000819050919050565b82818337600083830152505050565b60005b838110156113a557808201518184015260208101905061138a565b838111156113b4576000848401525b50505050565b600060028204905060018216806113d257607f821691505b602082108114156113e6576113e56114ac565b5b50919050565b6113f58261150a565b810181811067ffffffffffffffff82111715611414576114136114db565b5b80604052505050565b60006114288261136e565b91506114338361136e565b9250826114435761144261147d565b5b828206905092915050565b7f4e487b7100000000000000000000000000000000000000000000000000000000600052601160045260246000fd5b7f4e487b7100000000000000000000000000000000000000000000000000000000600052601260045260246000fd5b7f4e487b7100000000000000000000000000000000000000000000000000000000600052602260045260246000fd5b7f4e487b7100000000000000000000000000000000000000000000000000000000600052604160045260246000fd5b6000601f19601f8301169050919050565b7f47616d612d4368616e27732062616c616e6365206973206c657373207468616e60008201527f20746865207072697a6520616d6f756e74000000000000000000000000000000602082015250565b50565b7f6661696c656420746f207769746864726177206d6f6e65792066726f6d20476160008201527f6d612d4368616e2e000000000000000000000000000000000000000000000000602082015250565b7f57616974203135206d696e000000000000000000000000000000000000000000600082015250565b6115ee8161133c565b81146115f957600080fd5b5056fea26469706673582212203d04698741dede4e31b5fbcbe15d306a0d10b2b267568633232f2d0a0596160164736f6c6343000804003353756d6d6f6e696e67206a75737473752120536d61727420636f6e747261637421",
  "linkReferences": {},
  "deployedLinkReferences": {}
}