{
  "_format": "hh-sol-artifact-1",
  "contractName": "CryptoRater",
  "sourceName": "contracts/CryptoRater.sol",
  "abi": [
    {
      "inputs": [],
      "stateMutability": "payable",
      "type": "constructor"
    },
    {
      "anonymous": false,
      "inputs": [
        {
          "indexed": true,
          "internalType": "address",
          "name": "from",
          "type": "address"
        },
        {
          "indexed": false,
          "internalType": "uint256",
          "name": "timestamp",
          "type": "uint256"
        },
        {
          "indexed": false,
          "internalType": "string",
          "name": "message",
          "type": "string"
        }
      ],
      "name": "NewRating",
      "type": "event"
    },
    {
      "inputs": [],
      "name": "getAllRatings",
      "outputs": [
        {
          "components": [
            {
              "internalType": "address",
              "name": "rater",
              "type": "address"
            },
            {
              "internalType": "string",
              "name": "message",
              "type": "string"
            },
            {
              "internalType": "uint256",
              "name": "timestamp",
              "type": "uint256"
            }
          ],
          "internalType": "struct CryptoRater.Rate[]",
          "name": "",
          "type": "tuple[]"
        }
      ],
      "stateMutability": "view",
      "type": "function"
    },
    {
      "inputs": [],
      "name": "getMinus",
      "outputs": [
        {
          "internalType": "uint256",
          "name": "",
          "type": "uint256"
        }
      ],
      "stateMutability": "view",
      "type": "function"
    },
    {
      "inputs": [],
      "name": "getPlus",
      "outputs": [
        {
          "internalType": "uint256",
          "name": "",
          "type": "uint256"
        }
      ],
      "stateMutability": "view",
      "type": "function"
    },
    {
      "inputs": [
        {
          "internalType": "string",
          "name": "_message",
          "type": "string"
        }
      ],
      "name": "minus",
      "outputs": [],
      "stateMutability": "nonpayable",
      "type": "function"
    },
    {
      "inputs": [
        {
          "internalType": "string",
          "name": "_message",
          "type": "string"
        }
      ],
      "name": "plus",
      "outputs": [],
      "stateMutability": "nonpayable",
      "type": "function"
    }
  ],
  "bytecode": "0x60806040526200003360405180606001604052806021815260200162001417602191396200003960201b620007bb1760201c565b620001cd565b620000d98160405160240162000050919062000146565b6040516020818303038152906040527f41304fac000000000000000000000000000000000000000000000000000000007bffffffffffffffffffffffffffffffffffffffffffffffffffffffff19166020820180517bffffffffffffffffffffffffffffffffffffffffffffffffffffffff8381831617835250505050620000dc60201b60201c565b50565b60008151905060006a636f6e736f6c652e6c6f679050602083016000808483855afa5050505050565b600062000112826200016a565b6200011e818562000175565b93506200013081856020860162000186565b6200013b81620001bc565b840191505092915050565b6000602082019050818103600083015262000162818462000105565b905092915050565b600081519050919050565b600082825260208201905092915050565b60005b83811015620001a657808201518184015260208101905062000189565b83811115620001b6576000848401525b50505050565b6000601f19601f8301169050919050565b61123a80620001dd6000396000f3fe608060405234801561001057600080fd5b50600436106100575760003560e01c806326aba0bf1461005c5780635d99b84e146100785780639dbe552e14610094578063bd7f1cba146100b2578063eac977c4146100d0575b600080fd5b61007660048036038101906100719190610ac0565b6100ee565b005b610092600480360381019061008d9190610ac0565b610361565b005b61009c6105d4565b6040516100a99190610e2d565b60405180910390f35b6100ba61061f565b6040516100c79190610e2d565b60405180910390f35b6100d861066a565b6040516100e59190610d29565b60405180910390f35b60016000808282546101009190610f3f565b925050819055506101466040518060400160405280601481526020017f257320726174656420706f7369746976656c792100000000000000000000000081525033610854565b600260405180606001604052803373ffffffffffffffffffffffffffffffffffffffff16815260200183815260200142815250908060018154018082558091505060019003906000526020600020906003020160009091909190915060008201518160000160006101000a81548173ffffffffffffffffffffffffffffffffffffffff021916908373ffffffffffffffffffffffffffffffffffffffff16021790555060208201518160010190805190602001906102059291906109b5565b506040820151816002015550503373ffffffffffffffffffffffffffffffffffffffff167f3f69c665abf1ae9e6aa630a5a6e5e9ccd18758fdcd7c9dbee304a314a88d0b77428360405161025a929190610e48565b60405180910390a26000655af3107a40009050478111156102b0576040517f08c379a00000000000000000000000000000000000000000000000000000000081526004016102a790610dcd565b60405180910390fd5b60003373ffffffffffffffffffffffffffffffffffffffff16826040516102d690610d14565b60006040518083038185875af1925050503d8060008114610313576040519150601f19603f3d011682016040523d82523d6000602084013e610318565b606091505b505090508061035c576040517f08c379a000000000000000000000000000000000000000000000000000000000815260040161035390610e0d565b60405180910390fd5b505050565b60018060008282546103739190610f3f565b925050819055506103b96040518060400160405280601481526020017f2573207261746564206e656761746976656c792100000000000000000000000081525033610854565b600260405180606001604052803373ffffffffffffffffffffffffffffffffffffffff16815260200183815260200142815250908060018154018082558091505060019003906000526020600020906003020160009091909190915060008201518160000160006101000a81548173ffffffffffffffffffffffffffffffffffffffff021916908373ffffffffffffffffffffffffffffffffffffffff16021790555060208201518160010190805190602001906104789291906109b5565b506040820151816002015550503373ffffffffffffffffffffffffffffffffffffffff167f3f69c665abf1ae9e6aa630a5a6e5e9ccd18758fdcd7c9dbee304a314a88d0b7742836040516104cd929190610e48565b60405180910390a26000655af3107a4000905047811115610523576040517f08c379a000000000000000000000000000000000000000000000000000000000815260040161051a90610dcd565b60405180910390fd5b60003373ffffffffffffffffffffffffffffffffffffffff168260405161054990610d14565b60006040518083038185875af1925050503d8060008114610586576040519150601f19603f3d011682016040523d82523d6000602084013e61058b565b606091505b50509050806105cf576040517f08c379a00000000000000000000000000000000000000000000000000000000081526004016105c690610ded565b60405180910390fd5b505050565b60006106176040518060400160405280601881526020017f506f73697469766520726174696e67206f66202564203a2900000000000000008152506000546108f0565b600054905090565b60006106626040518060400160405280601881526020017f4e6567617469766520726174696e67206f66202564203a2800000000000000008152506000546108f0565b600154905090565b60606002805480602002602001604051908101604052809291908181526020016000905b828210156107b257838290600052602060002090600302016040518060600160405290816000820160009054906101000a900473ffffffffffffffffffffffffffffffffffffffff1673ffffffffffffffffffffffffffffffffffffffff1673ffffffffffffffffffffffffffffffffffffffff16815260200160018201805461071790611013565b80601f016020809104026020016040519081016040528092919081815260200182805461074390611013565b80156107905780601f1061076557610100808354040283529160200191610790565b820191906000526020600020905b81548152906001019060200180831161077357829003601f168201915b505050505081526020016002820154815250508152602001906001019061068e565b50505050905090565b610851816040516024016107cf9190610d4b565b6040516020818303038152906040527f41304fac000000000000000000000000000000000000000000000000000000007bffffffffffffffffffffffffffffffffffffffffffffffffffffffff19166020820180517bffffffffffffffffffffffffffffffffffffffffffffffffffffffff838183161783525050505061098c565b50565b6108ec828260405160240161086a929190610d6d565b6040516020818303038152906040527f319af333000000000000000000000000000000000000000000000000000000007bffffffffffffffffffffffffffffffffffffffffffffffffffffffff19166020820180517bffffffffffffffffffffffffffffffffffffffffffffffffffffffff838183161783525050505061098c565b5050565b6109888282604051602401610906929190610d9d565b6040516020818303038152906040527f9710a9d0000000000000000000000000000000000000000000000000000000007bffffffffffffffffffffffffffffffffffffffffffffffffffffffff19166020820180517bffffffffffffffffffffffffffffffffffffffffffffffffffffffff838183161783525050505061098c565b5050565b60008151905060006a636f6e736f6c652e6c6f679050602083016000808483855afa5050505050565b8280546109c190611013565b90600052602060002090601f0160209004810192826109e35760008555610a2a565b82601f106109fc57805160ff1916838001178555610a2a565b82800160010185558215610a2a579182015b82811115610a29578251825591602001919060010190610a0e565b5b509050610a379190610a3b565b5090565b5b80821115610a54576000816000905550600101610a3c565b5090565b6000610a6b610a6684610e9d565b610e78565b905082815260208101848484011115610a8357600080fd5b610a8e848285610fd1565b509392505050565b600082601f830112610aa757600080fd5b8135610ab7848260208601610a58565b91505092915050565b600060208284031215610ad257600080fd5b600082013567ffffffffffffffff811115610aec57600080fd5b610af884828501610a96565b91505092915050565b6000610b0d8383610ca6565b905092915050565b610b1e81610f95565b82525050565b610b2d81610f95565b82525050565b6000610b3e82610ede565b610b488185610f01565b935083602082028501610b5a85610ece565b8060005b85811015610b965784840389528151610b778582610b01565b9450610b8283610ef4565b925060208a01995050600181019050610b5e565b50829750879550505050505092915050565b6000610bb382610ee9565b610bbd8185610f1d565b9350610bcd818560208601610fe0565b610bd681611103565b840191505092915050565b6000610bec82610ee9565b610bf68185610f2e565b9350610c06818560208601610fe0565b610c0f81611103565b840191505092915050565b6000610c27603183610f2e565b9150610c3282611114565b604082019050919050565b6000610c4a602883610f2e565b9150610c5582611163565b604082019050919050565b6000610c6d600083610f12565b9150610c78826111b2565b600082019050919050565b6000610c90602883610f2e565b9150610c9b826111b5565b604082019050919050565b6000606083016000830151610cbe6000860182610b15565b5060208301518482036020860152610cd68282610ba8565b9150506040830151610ceb6040860182610cf6565b508091505092915050565b610cff81610fc7565b82525050565b610d0e81610fc7565b82525050565b6000610d1f82610c60565b9150819050919050565b60006020820190508181036000830152610d438184610b33565b905092915050565b60006020820190508181036000830152610d658184610be1565b905092915050565b60006040820190508181036000830152610d878185610be1565b9050610d966020830184610b24565b9392505050565b60006040820190508181036000830152610db78185610be1565b9050610dc66020830184610d05565b9392505050565b60006020820190508181036000830152610de681610c1a565b9050919050565b60006020820190508181036000830152610e0681610c3d565b9050919050565b60006020820190508181036000830152610e2681610c83565b9050919050565b6000602082019050610e426000830184610d05565b92915050565b6000604082019050610e5d6000830185610d05565b8181036020830152610e6f8184610be1565b90509392505050565b6000610e82610e93565b9050610e8e8282611045565b919050565b6000604051905090565b600067ffffffffffffffff821115610eb857610eb76110d4565b5b610ec182611103565b9050602081019050919050565b6000819050602082019050919050565b600081519050919050565b600081519050919050565b6000602082019050919050565b600082825260208201905092915050565b600081905092915050565b600082825260208201905092915050565b600082825260208201905092915050565b6000610f4a82610fc7565b9150610f5583610fc7565b9250827fffffffffffffffffffffffffffffffffffffffffffffffffffffffffffffffff03821115610f8a57610f89611076565b5b828201905092915050565b6000610fa082610fa7565b9050919050565b600073ffffffffffffffffffffffffffffffffffffffff82169050919050565b6000819050919050565b82818337600083830152505050565b60005b83811015610ffe578082015181840152602081019050610fe3565b8381111561100d576000848401525b50505050565b6000600282049050600182168061102b57607f821691505b6020821081141561103f5761103e6110a5565b5b50919050565b61104e82611103565b810181811067ffffffffffffffff8211171561106d5761106c6110d4565b5b80604052505050565b7f4e487b7100000000000000000000000000000000000000000000000000000000600052601160045260246000fd5b7f4e487b7100000000000000000000000000000000000000000000000000000000600052602260045260246000fd5b7f4e487b7100000000000000000000000000000000000000000000000000000000600052604160045260246000fd5b6000601f19601f8301169050919050565b7f47616d612d4368616e27732062616c616e6365206973206c657373207468616e60008201527f20746865207072697a6520616d6f756e74000000000000000000000000000000602082015250565b7f4661696c656420746f207769746864726177206d6f6e65792066726f6d20476160008201527f6d612d4368616e2e000000000000000000000000000000000000000000000000602082015250565b50565b7f6661696c656420746f207769746864726177206d6f6e65792066726f6d20476160008201527f6d612d4368616e2e00000000000000000000000000000000000000000000000060208201525056fea264697066735822122021a1a72b2a71f40e3bf7b9196511ae60b2d7f013f8d08ef23d25867184088c4564736f6c6343000804003353756d6d6f6e696e67206a75737473752120536d61727420636f6e747261637421",
  "linkReferences": {},
  "deployedLinkReferences": {}
}