{
  "_format": "hh-sol-artifact-1",
  "contractName": "CryptoRater",
  "sourceName": "contracts/CryptoRater.sol",
  "abi": [
    {
      "inputs": [],
      "stateMutability": "nonpayable",
      "type": "constructor"
    },
    {
      "inputs": [],
      "name": "getMinus",
      "outputs": [
        {
          "internalType": "uint256",
          "name": "",
          "type": "uint256"
        }
      ],
      "stateMutability": "view",
      "type": "function"
    },
    {
      "inputs": [],
      "name": "getPlus",
      "outputs": [
        {
          "internalType": "uint256",
          "name": "",
          "type": "uint256"
        }
      ],
      "stateMutability": "view",
      "type": "function"
    },
    {
      "inputs": [],
      "name": "minus",
      "outputs": [],
      "stateMutability": "nonpayable",
      "type": "function"
    },
    {
      "inputs": [],
      "name": "plus",
      "outputs": [],
      "stateMutability": "nonpayable",
      "type": "function"
    }
  ],
  "bytecode": "0x608060405234801561001057600080fd5b5061003c6040518060600160405280602181526020016108036021913961004160201b6101eb1760201c565b6101c4565b6100dd816040516024016100559190610142565b6040516020818303038152906040527f41304fac000000000000000000000000000000000000000000000000000000007bffffffffffffffffffffffffffffffffffffffffffffffffffffffff19166020820180517bffffffffffffffffffffffffffffffffffffffffffffffffffffffff83818316178352505050506100e060201b60201c565b50565b60008151905060006a636f6e736f6c652e6c6f679050602083016000808483855afa5050505050565b600061011482610164565b61011e818561016f565b935061012e818560208601610180565b610137816101b3565b840191505092915050565b6000602082019050818103600083015261015c8184610109565b905092915050565b600081519050919050565b600082825260208201905092915050565b60005b8381101561019e578082015181840152602081019050610183565b838111156101ad576000848401525b50505050565b6000601f19601f8301169050919050565b610630806101d36000396000f3fe608060405234801561001057600080fd5b506004361061004c5760003560e01c806314434fa51461005157806318b0c3fd1461005b5780639dbe552e14610065578063bd7f1cba14610083575b600080fd5b6100596100a1565b005b6100636100fb565b005b61006d610155565b60405161007a91906104be565b60405180910390f35b61008b6101a0565b60405161009891906104be565b60405180910390f35b60018060008282546100b391906104f5565b925050819055506100f96040518060400160405280601481526020017f2573207261746564206e656761746976656c792100000000000000000000000081525033610284565b565b600160008082825461010d91906104f5565b925050819055506101536040518060400160405280601481526020017f257320726174656420706f7369746976656c792100000000000000000000000081525033610284565b565b60006101986040518060400160405280601881526020017f506f73697469766520726174696e67206f66202564203a290000000000000000815250600054610320565b600054905090565b60006101e36040518060400160405280601881526020017f4e6567617469766520726174696e67206f66202564203a280000000000000000815250600054610320565b600154905090565b610281816040516024016101ff919061043c565b6040516020818303038152906040527f41304fac000000000000000000000000000000000000000000000000000000007bffffffffffffffffffffffffffffffffffffffffffffffffffffffff19166020820180517bffffffffffffffffffffffffffffffffffffffffffffffffffffffff83818316178352505050506103bc565b50565b61031c828260405160240161029a92919061045e565b6040516020818303038152906040527f319af333000000000000000000000000000000000000000000000000000000007bffffffffffffffffffffffffffffffffffffffffffffffffffffffff19166020820180517bffffffffffffffffffffffffffffffffffffffffffffffffffffffff83818316178352505050506103bc565b5050565b6103b8828260405160240161033692919061048e565b6040516020818303038152906040527f9710a9d0000000000000000000000000000000000000000000000000000000007bffffffffffffffffffffffffffffffffffffffffffffffffffffffff19166020820180517bffffffffffffffffffffffffffffffffffffffffffffffffffffffff83818316178352505050506103bc565b5050565b60008151905060006a636f6e736f6c652e6c6f679050602083016000808483855afa5050505050565b6103ee8161054b565b82525050565b60006103ff826104d9565b61040981856104e4565b9350610419818560208601610587565b610422816105e9565b840191505092915050565b6104368161057d565b82525050565b6000602082019050818103600083015261045681846103f4565b905092915050565b6000604082019050818103600083015261047881856103f4565b905061048760208301846103e5565b9392505050565b600060408201905081810360008301526104a881856103f4565b90506104b7602083018461042d565b9392505050565b60006020820190506104d3600083018461042d565b92915050565b600081519050919050565b600082825260208201905092915050565b60006105008261057d565b915061050b8361057d565b9250827fffffffffffffffffffffffffffffffffffffffffffffffffffffffffffffffff038211156105405761053f6105ba565b5b828201905092915050565b60006105568261055d565b9050919050565b600073ffffffffffffffffffffffffffffffffffffffff82169050919050565b6000819050919050565b60005b838110156105a557808201518184015260208101905061058a565b838111156105b4576000848401525b50505050565b7f4e487b7100000000000000000000000000000000000000000000000000000000600052601160045260246000fd5b6000601f19601f830116905091905056fea26469706673582212203c6fb35d5e6b60e53129cbf84f83e2090c1afe01c235378d6b64b33b84f2ae3d64736f6c6343000804003353756d6d6f6e696e67206a75737473752120536d61727420636f6e747261637421",
  "linkReferences": {},
  "deployedLinkReferences": {}
}